{
  "contractName": "YiDengToken",
  "abi": [
    {
      "inputs": [],
      "stateMutability": "nonpayable",
      "type": "constructor"
    },
    {
      "inputs": [
        {
          "internalType": "address",
          "name": "spender",
          "type": "address"
        },
        {
          "internalType": "uint256",
          "name": "allowance",
          "type": "uint256"
        },
        {
          "internalType": "uint256",
          "name": "needed",
          "type": "uint256"
        }
      ],
      "name": "ERC20InsufficientAllowance",
      "type": "error"
    },
    {
      "inputs": [
        {
          "internalType": "address",
          "name": "sender",
          "type": "address"
        },
        {
          "internalType": "uint256",
          "name": "balance",
          "type": "uint256"
        },
        {
          "internalType": "uint256",
          "name": "needed",
          "type": "uint256"
        }
      ],
      "name": "ERC20InsufficientBalance",
      "type": "error"
    },
    {
      "inputs": [
        {
          "internalType": "address",
          "name": "approver",
          "type": "address"
        }
      ],
      "name": "ERC20InvalidApprover",
      "type": "error"
    },
    {
      "inputs": [
        {
          "internalType": "address",
          "name": "receiver",
          "type": "address"
        }
      ],
      "name": "ERC20InvalidReceiver",
      "type": "error"
    },
    {
      "inputs": [
        {
          "internalType": "address",
          "name": "sender",
          "type": "address"
        }
      ],
      "name": "ERC20InvalidSender",
      "type": "error"
    },
    {
      "inputs": [
        {
          "internalType": "address",
          "name": "spender",
          "type": "address"
        }
      ],
      "name": "ERC20InvalidSpender",
      "type": "error"
    },
    {
      "inputs": [
        {
          "internalType": "address",
          "name": "owner",
          "type": "address"
        }
      ],
      "name": "OwnableInvalidOwner",
      "type": "error"
    },
    {
      "inputs": [
        {
          "internalType": "address",
          "name": "account",
          "type": "address"
        }
      ],
      "name": "OwnableUnauthorizedAccount",
      "type": "error"
    },
    {
      "anonymous": false,
      "inputs": [
        {
          "indexed": true,
          "internalType": "address",
          "name": "owner",
          "type": "address"
        },
        {
          "indexed": true,
          "internalType": "address",
          "name": "spender",
          "type": "address"
        },
        {
          "indexed": false,
          "internalType": "uint256",
          "name": "value",
          "type": "uint256"
        }
      ],
      "name": "Approval",
      "type": "event"
    },
    {
      "anonymous": false,
      "inputs": [
        {
          "indexed": false,
          "internalType": "address",
          "name": "teamWallet",
          "type": "address"
        },
        {
          "indexed": false,
          "internalType": "address",
          "name": "marketingWallet",
          "type": "address"
        },
        {
          "indexed": false,
          "internalType": "address",
          "name": "communityWallet",
          "type": "address"
        }
      ],
      "name": "InitialDistributionCompleted",
      "type": "event"
    },
    {
      "anonymous": false,
      "inputs": [
        {
          "indexed": true,
          "internalType": "address",
          "name": "previousOwner",
          "type": "address"
        },
        {
          "indexed": true,
          "internalType": "address",
          "name": "newOwner",
          "type": "address"
        }
      ],
      "name": "OwnershipTransferred",
      "type": "event"
    },
    {
      "anonymous": false,
      "inputs": [
        {
          "indexed": true,
          "internalType": "address",
          "name": "buyer",
          "type": "address"
        },
        {
          "indexed": false,
          "internalType": "uint256",
          "name": "ethAmount",
          "type": "uint256"
        },
        {
          "indexed": false,
          "internalType": "uint256",
          "name": "tokenAmount",
          "type": "uint256"
        }
      ],
      "name": "TokensPurchased",
      "type": "event"
    },
    {
      "anonymous": false,
      "inputs": [
        {
          "indexed": true,
          "internalType": "address",
          "name": "seller",
          "type": "address"
        },
        {
          "indexed": false,
          "internalType": "uint256",
          "name": "tokenAmount",
          "type": "uint256"
        },
        {
          "indexed": false,
          "internalType": "uint256",
          "name": "ethAmount",
          "type": "uint256"
        }
      ],
      "name": "TokensSold",
      "type": "event"
    },
    {
      "anonymous": false,
      "inputs": [
        {
          "indexed": true,
          "internalType": "address",
          "name": "from",
          "type": "address"
        },
        {
          "indexed": true,
          "internalType": "address",
          "name": "to",
          "type": "address"
        },
        {
          "indexed": false,
          "internalType": "uint256",
          "name": "value",
          "type": "uint256"
        }
      ],
      "name": "Transfer",
      "type": "event"
    },
    {
      "stateMutability": "payable",
      "type": "fallback",
      "payable": true
    },
    {
      "inputs": [],
      "name": "MAX_SUPPLY",
      "outputs": [
        {
          "internalType": "uint256",
          "name": "",
          "type": "uint256"
        }
      ],
      "stateMutability": "view",
      "type": "function",
      "constant": true
    },
    {
      "inputs": [],
      "name": "TOKENS_PER_ETH",
      "outputs": [
        {
          "internalType": "uint256",
          "name": "",
          "type": "uint256"
        }
      ],
      "stateMutability": "view",
      "type": "function",
      "constant": true
    },
    {
      "inputs": [
        {
          "internalType": "address",
          "name": "owner",
          "type": "address"
        },
        {
          "internalType": "address",
          "name": "spender",
          "type": "address"
        }
      ],
      "name": "allowance",
      "outputs": [
        {
          "internalType": "uint256",
          "name": "",
          "type": "uint256"
        }
      ],
      "stateMutability": "view",
      "type": "function",
      "constant": true
    },
    {
      "inputs": [
        {
          "internalType": "address",
          "name": "spender",
          "type": "address"
        },
        {
          "internalType": "uint256",
          "name": "value",
          "type": "uint256"
        }
      ],
      "name": "approve",
      "outputs": [
        {
          "internalType": "bool",
          "name": "",
          "type": "bool"
        }
      ],
      "stateMutability": "nonpayable",
      "type": "function"
    },
    {
      "inputs": [
        {
          "internalType": "address",
          "name": "account",
          "type": "address"
        }
      ],
      "name": "balanceOf",
      "outputs": [
        {
          "internalType": "uint256",
          "name": "",
          "type": "uint256"
        }
      ],
      "stateMutability": "view",
      "type": "function",
      "constant": true
    },
    {
      "inputs": [],
      "name": "communityAllocation",
      "outputs": [
        {
          "internalType": "uint256",
          "name": "",
          "type": "uint256"
        }
      ],
      "stateMutability": "view",
      "type": "function",
      "constant": true
    },
    {
      "inputs": [],
      "name": "initialDistributionDone",
      "outputs": [
        {
          "internalType": "bool",
          "name": "",
          "type": "bool"
        }
      ],
      "stateMutability": "view",
      "type": "function",
      "constant": true
    },
    {
      "inputs": [],
      "name": "marketingAllocation",
      "outputs": [
        {
          "internalType": "uint256",
          "name": "",
          "type": "uint256"
        }
      ],
      "stateMutability": "view",
      "type": "function",
      "constant": true
    },
    {
      "inputs": [],
      "name": "name",
      "outputs": [
        {
          "internalType": "string",
          "name": "",
          "type": "string"
        }
      ],
      "stateMutability": "view",
      "type": "function",
      "constant": true
    },
    {
      "inputs": [],
      "name": "owner",
      "outputs": [
        {
          "internalType": "address",
          "name": "",
          "type": "address"
        }
      ],
      "stateMutability": "view",
      "type": "function",
      "constant": true
    },
    {
      "inputs": [],
      "name": "renounceOwnership",
      "outputs": [],
      "stateMutability": "nonpayable",
      "type": "function"
    },
    {
      "inputs": [],
      "name": "symbol",
      "outputs": [
        {
          "internalType": "string",
          "name": "",
          "type": "string"
        }
      ],
      "stateMutability": "view",
      "type": "function",
      "constant": true
    },
    {
      "inputs": [],
      "name": "teamAllocation",
      "outputs": [
        {
          "internalType": "uint256",
          "name": "",
          "type": "uint256"
        }
      ],
      "stateMutability": "view",
      "type": "function",
      "constant": true
    },
    {
      "inputs": [],
      "name": "totalSupply",
      "outputs": [
        {
          "internalType": "uint256",
          "name": "",
          "type": "uint256"
        }
      ],
      "stateMutability": "view",
      "type": "function",
      "constant": true
    },
    {
      "inputs": [
        {
          "internalType": "address",
          "name": "to",
          "type": "address"
        },
        {
          "internalType": "uint256",
          "name": "value",
          "type": "uint256"
        }
      ],
      "name": "transfer",
      "outputs": [
        {
          "internalType": "bool",
          "name": "",
          "type": "bool"
        }
      ],
      "stateMutability": "nonpayable",
      "type": "function"
    },
    {
      "inputs": [
        {
          "internalType": "address",
          "name": "from",
          "type": "address"
        },
        {
          "internalType": "address",
          "name": "to",
          "type": "address"
        },
        {
          "internalType": "uint256",
          "name": "value",
          "type": "uint256"
        }
      ],
      "name": "transferFrom",
      "outputs": [
        {
          "internalType": "bool",
          "name": "",
          "type": "bool"
        }
      ],
      "stateMutability": "nonpayable",
      "type": "function"
    },
    {
      "inputs": [
        {
          "internalType": "address",
          "name": "newOwner",
          "type": "address"
        }
      ],
      "name": "transferOwnership",
      "outputs": [],
      "stateMutability": "nonpayable",
      "type": "function"
    },
    {
      "stateMutability": "payable",
      "type": "receive",
      "payable": true
    },
    {
      "inputs": [],
      "name": "decimals",
      "outputs": [
        {
          "internalType": "uint8",
          "name": "",
          "type": "uint8"
        }
      ],
      "stateMutability": "view",
      "type": "function",
      "constant": true
    },
    {
      "inputs": [
        {
          "internalType": "address",
          "name": "teamWallet",
          "type": "address"
        },
        {
          "internalType": "address",
          "name": "marketingWallet",
          "type": "address"
        },
        {
          "internalType": "address",
          "name": "communityWallet",
          "type": "address"
        }
      ],
      "name": "distributeInitialTokens",
      "outputs": [],
      "stateMutability": "nonpayable",
      "type": "function"
    },
    {
      "inputs": [],
      "name": "buyWithETH",
      "outputs": [],
      "stateMutability": "payable",
      "type": "function",
      "payable": true
    },
    {
      "inputs": [
        {
          "internalType": "uint256",
          "name": "tokenAmount",
          "type": "uint256"
        }
      ],
      "name": "sellTokens",
      "outputs": [],
      "stateMutability": "nonpayable",
      "type": "function"
    },
    {
      "inputs": [],
      "name": "remainingMintableSupply",
      "outputs": [
        {
          "internalType": "uint256",
          "name": "",
          "type": "uint256"
        }
      ],
      "stateMutability": "view",
      "type": "function",
      "constant": true
    },
    {
      "inputs": [],
      "name": "withdrawETH",
      "outputs": [],
      "stateMutability": "nonpayable",
      "type": "function"
    }
  ],
  "bytecode": "0x60806040523480156200001157600080fd5b50336040518060400160405280600c81526020017f596944656e6720546f6b656e00000000000000000000000000000000000000008152506040518060400160405280600281526020017f59440000000000000000000000000000000000000000000000000000000000008152508160039081620000909190620004f3565b508060049081620000a29190620004f3565b505050600073ffffffffffffffffffffffffffffffffffffffff168173ffffffffffffffffffffffffffffffffffffffff16036200011a5760006040517f1e4fbdf70000000000000000000000000000000000000000000000000000000081526004016200011191906200061f565b60405180910390fd5b6200013481620001ad640100000000026401000000009004565b5060646014621312d06200014991906200066b565b620001559190620006e5565b6006819055506064600a621312d06200016f91906200066b565b6200017b9190620006e5565b6007819055506064600a621312d06200019591906200066b565b620001a19190620006e5565b6008819055506200071d565b6000600560009054906101000a900473ffffffffffffffffffffffffffffffffffffffff16905081600560006101000a81548173ffffffffffffffffffffffffffffffffffffffff021916908373ffffffffffffffffffffffffffffffffffffffff1602179055508173ffffffffffffffffffffffffffffffffffffffff168173ffffffffffffffffffffffffffffffffffffffff167f8be0079c531659141344cd1fd0a4f28419497f9722a3daafe3b4186f6b6457e060405160405180910390a35050565b600081519050919050565b7f4e487b7100000000000000000000000000000000000000000000000000000000600052604160045260246000fd5b7f4e487b7100000000000000000000000000000000000000000000000000000000600052602260045260246000fd5b60006002820490506001821680620002f557607f821691505b6020821081036200030b576200030a620002ad565b5b50919050565b60008190508160005260206000209050919050565b60006020601f8301049050919050565b60008160020a8302905092915050565b600060088302620003787fffffffffffffffffffffffffffffffffffffffffffffffffffffffffffffffff8262000336565b62000384868362000336565b95508019841693508086168417925050509392505050565b6000819050919050565b6000819050919050565b6000620003d1620003cb620003c5846200039c565b620003a6565b6200039c565b9050919050565b6000819050919050565b620003ed83620003b0565b62000405620003fc82620003d8565b84845462000346565b825550505050565b600090565b6200041c6200040d565b62000429818484620003e2565b505050565b5b8181101562000451576200044560008262000412565b6001810190506200042f565b5050565b601f821115620004a0576200046a8162000311565b620004758462000326565b8101602085101562000485578190505b6200049d620004948562000326565b8301826200042e565b50505b505050565b60008160020a8304905092915050565b6000620004c860001984600802620004a5565b1980831691505092915050565b6000620004e38383620004b5565b9150826002028217905092915050565b620004fe8262000273565b67ffffffffffffffff8111156200051a57620005196200027e565b5b620005268254620002dc565b6200053382828562000455565b600060209050601f8311600181146200056b576000841562000556578287015190505b620005628582620004d5565b865550620005d2565b601f1984166200057b8662000311565b60005b82811015620005a5578489015182556001820191506020850194506020810190506200057e565b86831015620005c55784890151620005c1601f891682620004b5565b8355505b6001600288020188555050505b505050505050565b600073ffffffffffffffffffffffffffffffffffffffff82169050919050565b60006200060782620005da565b9050919050565b6200061981620005fa565b82525050565b60006020820190506200063660008301846200060e565b92915050565b7f4e487b7100000000000000000000000000000000000000000000000000000000600052601160045260246000fd5b600062000678826200039c565b915062000685836200039c565b925082820262000695816200039c565b91508282048414831517620006af57620006ae6200063c565b5b5092915050565b7f4e487b7100000000000000000000000000000000000000000000000000000000600052601260045260246000fd5b6000620006f2826200039c565b9150620006ff836200039c565b925082620007125762000711620006b6565b5b828204905092915050565b611e98806200072d6000396000f3fe608060405260043610610161576000357c0100000000000000000000000000000000000000000000000000000000900480636c11bcd3116100d3578063bc6e66041161008c578063bc6e660414610456578063d53b4ab414610481578063dd62ed3e146104ac578063e086e5ec146104e9578063e492c5a914610500578063f2fde38b1461052957610168565b80636c11bcd31461034657806370a082311461036f578063715018a6146103ac5780638da5cb5b146103c357806395d89b41146103ee578063a9059cbb1461041957610168565b806318160ddd1161012557806318160ddd1461023257806323b872dd1461025d578063313ce5671461029a57806332cb6b0c146102c5578063349f0b90146102f05780636816521a1461031b57610168565b80630535ec771461016a57806306fdde0314610195578063095ea7b3146101c0578063150d283d146101fd57806315f0c2201461020757610168565b3661016857005b005b34801561017657600080fd5b5061017f610552565b60405161018c9190611561565b60405180910390f35b3480156101a157600080fd5b506101aa610565565b6040516101b7919061160c565b60405180910390f35b3480156101cc57600080fd5b506101e760048036038101906101e291906116c7565b6105f7565b6040516101f49190611561565b60405180910390f35b61020561061a565b005b34801561021357600080fd5b5061021c610737565b6040516102299190611716565b60405180910390f35b34801561023e57600080fd5b5061024761073d565b6040516102549190611716565b60405180910390f35b34801561026957600080fd5b50610284600480360381019061027f9190611731565b610747565b6040516102919190611561565b60405180910390f35b3480156102a657600080fd5b506102af610776565b6040516102bc91906117a0565b60405180910390f35b3480156102d157600080fd5b506102da61077b565b6040516102e79190611716565b60405180910390f35b3480156102fc57600080fd5b50610305610782565b6040516103129190611716565b60405180910390f35b34801561032757600080fd5b5061033061079f565b60405161033d9190611716565b60405180910390f35b34801561035257600080fd5b5061036d600480360381019061036891906117bb565b6107a5565b005b34801561037b57600080fd5b50610396600480360381019061039191906117e8565b6109bd565b6040516103a39190611716565b60405180910390f35b3480156103b857600080fd5b506103c1610a05565b005b3480156103cf57600080fd5b506103d8610a19565b6040516103e59190611824565b60405180910390f35b3480156103fa57600080fd5b50610403610a43565b604051610410919061160c565b60405180910390f35b34801561042557600080fd5b50610440600480360381019061043b91906116c7565b610ad5565b60405161044d9190611561565b60405180910390f35b34801561046257600080fd5b5061046b610af8565b6040516104789190611716565b60405180910390f35b34801561048d57600080fd5b50610496610afe565b6040516104a39190611716565b60405180910390f35b3480156104b857600080fd5b506104d360048036038101906104ce919061183f565b610b04565b6040516104e09190611716565b60405180910390f35b3480156104f557600080fd5b506104fe610b8b565b005b34801561050c57600080fd5b506105276004803603810190610522919061187f565b610bfa565b005b34801561053557600080fd5b50610550600480360381019061054b91906117e8565b610cd1565b005b600960009054906101000a900460ff1681565b60606003805461057490611901565b80601f01602080910402602001604051908101604052809291908181526020018280546105a090611901565b80156105ed5780601f106105c2576101008083540402835291602001916105ed565b820191906000526020600020905b8154815290600101906020018083116105d057829003601f168201915b5050505050905090565b600080610602610d57565b905061060f818585610d5f565b600191505092915050565b6000341161065d576040517f08c379a00000000000000000000000000000000000000000000000000000000081526004016106549061197e565b60405180910390fd5b6000670de0b6b3a76400006103e83461067691906119cd565b6106809190611a3e565b9050621312d08161068f61073d565b6106999190611a6f565b11156106da576040517f08c379a00000000000000000000000000000000000000000000000000000000081526004016106d190611aef565b60405180910390fd5b6106e43382610d71565b3373ffffffffffffffffffffffffffffffffffffffff167f8fafebcaf9d154343dad25669bfa277f4fbacd7ac6b0c4fed522580e040a0f33348360405161072c929190611b0f565b60405180910390a250565b60075481565b6000600254905090565b600080610752610d57565b905061075f858285610df3565b61076a858585610e87565b60019150509392505050565b600090565b621312d081565b600061078c61073d565b621312d061079a9190611b38565b905090565b60065481565b600081116107e8576040517f08c379a00000000000000000000000000000000000000000000000000000000081526004016107df90611bb8565b60405180910390fd5b806107f2336109bd565b1015610833576040517f08c379a000000000000000000000000000000000000000000000000000000000815260040161082a90611c24565b60405180910390fd5b60006103e8670de0b6b3a76400008361084c91906119cd565b6108569190611a3e565b9050803073ffffffffffffffffffffffffffffffffffffffff163110156108b2576040517f08c379a00000000000000000000000000000000000000000000000000000000081526004016108a990611c90565b60405180910390fd5b6108bc3383610f7b565b60003373ffffffffffffffffffffffffffffffffffffffff16826040516108e290611ce1565b60006040518083038185875af1925050503d806000811461091f576040519150601f19603f3d011682016040523d82523d6000602084013e610924565b606091505b5050905080610968576040517f08c379a000000000000000000000000000000000000000000000000000000000815260040161095f90611d42565b60405180910390fd5b3373ffffffffffffffffffffffffffffffffffffffff167f2dcf9433d75db0d8b1c172641f85e319ffe4ad22e108a95d1847ceb906e5195d84846040516109b0929190611b0f565b60405180910390a2505050565b60008060008373ffffffffffffffffffffffffffffffffffffffff1673ffffffffffffffffffffffffffffffffffffffff168152602001908152602001600020549050919050565b610a0d610ffd565b610a176000611084565b565b6000600560009054906101000a900473ffffffffffffffffffffffffffffffffffffffff16905090565b606060048054610a5290611901565b80601f0160208091040260200160405190810160405280929190818152602001828054610a7e90611901565b8015610acb5780601f10610aa057610100808354040283529160200191610acb565b820191906000526020600020905b815481529060010190602001808311610aae57829003601f168201915b5050505050905090565b600080610ae0610d57565b9050610aed818585610e87565b600191505092915050565b6103e881565b60085481565b6000600160008473ffffffffffffffffffffffffffffffffffffffff1673ffffffffffffffffffffffffffffffffffffffff16815260200190815260200160002060008373ffffffffffffffffffffffffffffffffffffffff1673ffffffffffffffffffffffffffffffffffffffff16815260200190815260200160002054905092915050565b610b93610ffd565b610b9b610a19565b73ffffffffffffffffffffffffffffffffffffffff166108fc3073ffffffffffffffffffffffffffffffffffffffff16319081150290604051600060405180830381858888f19350505050158015610bf7573d6000803e3d6000fd5b50565b610c02610ffd565b600960009054906101000a900460ff1615610c52576040517f08c379a0000000000000000000000000000000000000000000000000000000008152600401610c4990611dd4565b60405180910390fd5b610c5e83600654610d71565b610c6a82600754610d71565b610c7681600854610d71565b6001600960006101000a81548160ff0219169083151502179055507f4864f7df2cd1c07972b3dbf1a98de81ddd7d784caf0078d5e5e372b219f6695c838383604051610cc493929190611df4565b60405180910390a1505050565b610cd9610ffd565b600073ffffffffffffffffffffffffffffffffffffffff168173ffffffffffffffffffffffffffffffffffffffff1603610d4b5760006040517f1e4fbdf7000000000000000000000000000000000000000000000000000000008152600401610d429190611824565b60405180910390fd5b610d5481611084565b50565b600033905090565b610d6c838383600161114a565b505050565b600073ffffffffffffffffffffffffffffffffffffffff168273ffffffffffffffffffffffffffffffffffffffff1603610de35760006040517fec442f05000000000000000000000000000000000000000000000000000000008152600401610dda9190611824565b60405180910390fd5b610def60008383611321565b5050565b6000610dff8484610b04565b90507fffffffffffffffffffffffffffffffffffffffffffffffffffffffffffffffff8114610e815781811015610e71578281836040517ffb8f41b2000000000000000000000000000000000000000000000000000000008152600401610e6893929190611e2b565b60405180910390fd5b610e808484848403600061114a565b5b50505050565b600073ffffffffffffffffffffffffffffffffffffffff168373ffffffffffffffffffffffffffffffffffffffff1603610ef95760006040517f96c6fd1e000000000000000000000000000000000000000000000000000000008152600401610ef09190611824565b60405180910390fd5b600073ffffffffffffffffffffffffffffffffffffffff168273ffffffffffffffffffffffffffffffffffffffff1603610f6b5760006040517fec442f05000000000000000000000000000000000000000000000000000000008152600401610f629190611824565b60405180910390fd5b610f76838383611321565b505050565b600073ffffffffffffffffffffffffffffffffffffffff168273ffffffffffffffffffffffffffffffffffffffff1603610fed5760006040517f96c6fd1e000000000000000000000000000000000000000000000000000000008152600401610fe49190611824565b60405180910390fd5b610ff982600083611321565b5050565b611005610d57565b73ffffffffffffffffffffffffffffffffffffffff16611023610a19565b73ffffffffffffffffffffffffffffffffffffffff161461108257611046610d57565b6040517f118cdaa70000000000000000000000000000000000000000000000000000000081526004016110799190611824565b60405180910390fd5b565b6000600560009054906101000a900473ffffffffffffffffffffffffffffffffffffffff16905081600560006101000a81548173ffffffffffffffffffffffffffffffffffffffff021916908373ffffffffffffffffffffffffffffffffffffffff1602179055508173ffffffffffffffffffffffffffffffffffffffff168173ffffffffffffffffffffffffffffffffffffffff167f8be0079c531659141344cd1fd0a4f28419497f9722a3daafe3b4186f6b6457e060405160405180910390a35050565b600073ffffffffffffffffffffffffffffffffffffffff168473ffffffffffffffffffffffffffffffffffffffff16036111bc5760006040517fe602df050000000000000000000000000000000000000000000000000000000081526004016111b39190611824565b60405180910390fd5b600073ffffffffffffffffffffffffffffffffffffffff168373ffffffffffffffffffffffffffffffffffffffff160361122e5760006040517f94280d620000000000000000000000000000000000000000000000000000000081526004016112259190611824565b60405180910390fd5b81600160008673ffffffffffffffffffffffffffffffffffffffff1673ffffffffffffffffffffffffffffffffffffffff16815260200190815260200160002060008573ffffffffffffffffffffffffffffffffffffffff1673ffffffffffffffffffffffffffffffffffffffff16815260200190815260200160002081905550801561131b578273ffffffffffffffffffffffffffffffffffffffff168473ffffffffffffffffffffffffffffffffffffffff167f8c5be1e5ebec7d5bd14f71427d1e84f3dd0314c0f7b2291e5b200ac8c7c3b925846040516113129190611716565b60405180910390a35b50505050565b600073ffffffffffffffffffffffffffffffffffffffff168373ffffffffffffffffffffffffffffffffffffffff16036113735780600260008282546113679190611a6f565b92505081905550611446565b60008060008573ffffffffffffffffffffffffffffffffffffffff1673ffffffffffffffffffffffffffffffffffffffff168152602001908152602001600020549050818110156113ff578381836040517fe450d38c0000000000000000000000000000000000000000000000000000000081526004016113f693929190611e2b565b60405180910390fd5b8181036000808673ffffffffffffffffffffffffffffffffffffffff1673ffffffffffffffffffffffffffffffffffffffff16815260200190815260200160002081905550505b600073ffffffffffffffffffffffffffffffffffffffff168273ffffffffffffffffffffffffffffffffffffffff160361148f57806002600082825403925050819055506114dc565b806000808473ffffffffffffffffffffffffffffffffffffffff1673ffffffffffffffffffffffffffffffffffffffff168152602001908152602001600020600082825401925050819055505b8173ffffffffffffffffffffffffffffffffffffffff168373ffffffffffffffffffffffffffffffffffffffff167fddf252ad1be2c89b69c2b068fc378daa952ba7f163c4a11628f55a4df523b3ef836040516115399190611716565b60405180910390a3505050565b60008115159050919050565b61155b81611546565b82525050565b60006020820190506115766000830184611552565b92915050565b600081519050919050565b600082825260208201905092915050565b60005b838110156115b657808201518184015260208101905061159b565b60008484015250505050565b6000601f19601f8301169050919050565b60006115de8261157c565b6115e88185611587565b93506115f8818560208601611598565b611601816115c2565b840191505092915050565b6000602082019050818103600083015261162681846115d3565b905092915050565b600080fd5b600073ffffffffffffffffffffffffffffffffffffffff82169050919050565b600061165e82611633565b9050919050565b61166e81611653565b811461167957600080fd5b50565b60008135905061168b81611665565b92915050565b6000819050919050565b6116a481611691565b81146116af57600080fd5b50565b6000813590506116c18161169b565b92915050565b600080604083850312156116de576116dd61162e565b5b60006116ec8582860161167c565b92505060206116fd858286016116b2565b9150509250929050565b61171081611691565b82525050565b600060208201905061172b6000830184611707565b92915050565b60008060006060848603121561174a5761174961162e565b5b60006117588682870161167c565b93505060206117698682870161167c565b925050604061177a868287016116b2565b9150509250925092565b600060ff82169050919050565b61179a81611784565b82525050565b60006020820190506117b56000830184611791565b92915050565b6000602082840312156117d1576117d061162e565b5b60006117df848285016116b2565b91505092915050565b6000602082840312156117fe576117fd61162e565b5b600061180c8482850161167c565b91505092915050565b61181e81611653565b82525050565b60006020820190506118396000830184611815565b92915050565b600080604083850312156118565761185561162e565b5b60006118648582860161167c565b92505060206118758582860161167c565b9150509250929050565b6000806000606084860312156118985761189761162e565b5b60006118a68682870161167c565b93505060206118b78682870161167c565b92505060406118c88682870161167c565b9150509250925092565b7f4e487b7100000000000000000000000000000000000000000000000000000000600052602260045260246000fd5b6000600282049050600182168061191957607f821691505b60208210810361192c5761192b6118d2565b5b50919050565b7f4d7573742073656e642045544800000000000000000000000000000000000000600082015250565b6000611968600d83611587565b915061197382611932565b602082019050919050565b600060208201905081810360008301526119978161195b565b9050919050565b7f4e487b7100000000000000000000000000000000000000000000000000000000600052601160045260246000fd5b60006119d882611691565b91506119e383611691565b92508282026119f181611691565b91508282048414831517611a0857611a0761199e565b5b5092915050565b7f4e487b7100000000000000000000000000000000000000000000000000000000600052601260045260246000fd5b6000611a4982611691565b9150611a5483611691565b925082611a6457611a63611a0f565b5b828204905092915050565b6000611a7a82611691565b9150611a8583611691565b9250828201905080821115611a9d57611a9c61199e565b5b92915050565b7f576f756c6420657863656564206d617820737570706c79000000000000000000600082015250565b6000611ad9601783611587565b9150611ae482611aa3565b602082019050919050565b60006020820190508181036000830152611b0881611acc565b9050919050565b6000604082019050611b246000830185611707565b611b316020830184611707565b9392505050565b6000611b4382611691565b9150611b4e83611691565b9250828203905081811115611b6657611b6561199e565b5b92915050565b7f416d6f756e74206d7573742062652067726561746572207468616e2030000000600082015250565b6000611ba2601d83611587565b9150611bad82611b6c565b602082019050919050565b60006020820190508181036000830152611bd181611b95565b9050919050565b7f496e73756666696369656e742062616c616e6365000000000000000000000000600082015250565b6000611c0e601483611587565b9150611c1982611bd8565b602082019050919050565b60006020820190508181036000830152611c3d81611c01565b9050919050565b7f496e73756666696369656e742045544820696e20636f6e747261637400000000600082015250565b6000611c7a601c83611587565b9150611c8582611c44565b602082019050919050565b60006020820190508181036000830152611ca981611c6d565b9050919050565b600081905092915050565b50565b6000611ccb600083611cb0565b9150611cd682611cbb565b600082019050919050565b6000611cec82611cbe565b9150819050919050565b7f455448207472616e73666572206661696c656400000000000000000000000000600082015250565b6000611d2c601383611587565b9150611d3782611cf6565b602082019050919050565b60006020820190508181036000830152611d5b81611d1f565b9050919050565b7f496e697469616c20646973747269627574696f6e20616c726561647920646f6e60008201527f6500000000000000000000000000000000000000000000000000000000000000602082015250565b6000611dbe602183611587565b9150611dc982611d62565b604082019050919050565b60006020820190508181036000830152611ded81611db1565b9050919050565b6000606082019050611e096000830186611815565b611e166020830185611815565b611e236040830184611815565b949350505050565b6000606082019050611e406000830186611815565b611e4d6020830185611707565b611e5a6040830184611707565b94935050505056fea26469706673582212200a6b758991acab1641bed061d92df8a8d7a7e7167a0381a52ddc62d159cfa20d64736f6c63430008140033",
  "immutableReferences": {},
  "source": "// SPDX-License-Identifier: MIT\npragma solidity ^0.8.0;\n\n//  OpenZeppelin  ERC20 \nimport \"@openzeppelin/contracts/token/ERC20/ERC20.sol\";\n//  OpenZeppelin \nimport \"@openzeppelin/contracts/access/Ownable.sol\";\n\n// YiDengToken  ERC20  Ownable\ncontract YiDengToken is ERC20, Ownable {\n    //  ETH  YD 1 ETH = 1000 YD\n    uint256 public constant TOKENS_PER_ETH = 1000;\n    // 125 YD 18 \n    uint256 public constant MAX_SUPPLY = 1250000;\n\n    // 20% = 25 YD\n    uint256 public teamAllocation;\n    // 10% = 12.5 YD\n    uint256 public marketingAllocation;\n    // 10% = 12.5 YD\n    uint256 public communityAllocation;\n    //  60% = 75 YD \n\n    // \n    bool public initialDistributionDone;\n    function decimals() public view virtual override returns (uint8) {\n        return 0;\n    }\n    // \n    event TokensPurchased(\n        address indexed buyer,\n        uint256 ethAmount,\n        uint256 tokenAmount\n    );\n    event TokensSold(\n        address indexed seller,\n        uint256 tokenAmount,\n        uint256 ethAmount\n    );\n    event InitialDistributionCompleted(\n        address teamWallet,\n        address marketingWallet,\n        address communityWallet\n    );\n\n    //  \"YiDeng Token\" \"YD\"\n    constructor() ERC20(\"YiDeng Token\", \"YD\") Ownable(msg.sender) {\n        // \n        teamAllocation = (MAX_SUPPLY * 20) / 100; // 20% \n        marketingAllocation = (MAX_SUPPLY * 10) / 100; // 10% \n        communityAllocation = (MAX_SUPPLY * 10) / 100; // 10% \n    }\n\n    // \n    function distributeInitialTokens(\n        address teamWallet, // \n        address marketingWallet, // \n        address communityWallet // \n    ) external onlyOwner {\n        require(!initialDistributionDone, \"Initial distribution already done\");\n\n        _mint(teamWallet, teamAllocation); // \n        _mint(marketingWallet, marketingAllocation); // \n        _mint(communityWallet, communityAllocation); // \n\n        initialDistributionDone = true;\n        emit InitialDistributionCompleted(\n            teamWallet,\n            marketingWallet,\n            communityWallet\n        );\n    }\n\n    //  ETH  YD \n    function buyWithETH() external payable {\n        require(msg.value > 0, \"Must send ETH\");\n        //  wei  ETH \n        uint256 tokenAmount = (msg.value * TOKENS_PER_ETH) / 1e18;\n        require(\n            totalSupply() + tokenAmount <= MAX_SUPPLY,\n            \"Would exceed max supply\"\n        );\n\n        _mint(msg.sender, tokenAmount);\n        emit TokensPurchased(msg.sender, msg.value, tokenAmount);\n    }\n\n    /**\n     * @notice YiDengETH\n     * @param tokenAmount \n     */\n    function sellTokens(uint256 tokenAmount) external {\n        require(tokenAmount > 0, \"Amount must be greater than 0\");\n        require(balanceOf(msg.sender) >= tokenAmount, \"Insufficient balance\");\n\n        // ETHwei\n        // uint256 ethAmount = tokenAmount / TOKENS_PER_ETH;\n        uint256 ethAmount = (tokenAmount * 1e18) / TOKENS_PER_ETH;\n        \n        require(\n            address(this).balance >= ethAmount,\n            \"Insufficient ETH in contract\"\n        );\n\n        // \n        _burn(msg.sender, tokenAmount);\n\n        // ETH\n        (bool success, ) = payable(msg.sender).call{value: ethAmount}(\"\");\n        require(success, \"ETH transfer failed\");\n\n        emit TokensSold(msg.sender, tokenAmount, ethAmount);\n    }\n\n    // \n    function remainingMintableSupply() public view returns (uint256) {\n        return MAX_SUPPLY - totalSupply();\n    }\n\n    //  ETH\n    function withdrawETH() external onlyOwner {\n        payable(owner()).transfer(address(this).balance);\n    }\n\n    // ETH\n    receive() external payable {}\n\n    // ETH\n    fallback() external payable {}\n}\n",
  "sourcePath": "/Users/zhangwenwen/web3/code/yd-truffle-demo 2/contracts/YiDengToken.sol",
  "compiler": {
    "name": "solc",
    "version": "0.8.20+commit.a1b79de6.Emscripten.clang"
  },
  "schemaVersion": "3.4.16",
  "updatedAt": "2024-12-15T07:37:14.101Z",
  "networkType": "ethereum",
  "devdoc": {
    "errors": {
      "ERC20InsufficientAllowance(address,uint256,uint256)": [
        {
          "details": "Indicates a failure with the `spender`s `allowance`. Used in transfers.",
          "params": {
            "allowance": "Amount of tokens a `spender` is allowed to operate with.",
            "needed": "Minimum amount required to perform a transfer.",
            "spender": "Address that may be allowed to operate on tokens without being their owner."
          }
        }
      ],
      "ERC20InsufficientBalance(address,uint256,uint256)": [
        {
          "details": "Indicates an error related to the current `balance` of a `sender`. Used in transfers.",
          "params": {
            "balance": "Current balance for the interacting account.",
            "needed": "Minimum amount required to perform a transfer.",
            "sender": "Address whose tokens are being transferred."
          }
        }
      ],
      "ERC20InvalidApprover(address)": [
        {
          "details": "Indicates a failure with the `approver` of a token to be approved. Used in approvals.",
          "params": {
            "approver": "Address initiating an approval operation."
          }
        }
      ],
      "ERC20InvalidReceiver(address)": [
        {
          "details": "Indicates a failure with the token `receiver`. Used in transfers.",
          "params": {
            "receiver": "Address to which tokens are being transferred."
          }
        }
      ],
      "ERC20InvalidSender(address)": [
        {
          "details": "Indicates a failure with the token `sender`. Used in transfers.",
          "params": {
            "sender": "Address whose tokens are being transferred."
          }
        }
      ],
      "ERC20InvalidSpender(address)": [
        {
          "details": "Indicates a failure with the `spender` to be approved. Used in approvals.",
          "params": {
            "spender": "Address that may be allowed to operate on tokens without being their owner."
          }
        }
      ],
      "OwnableInvalidOwner(address)": [
        {
          "details": "The owner is not a valid owner account. (eg. `address(0)`)"
        }
      ],
      "OwnableUnauthorizedAccount(address)": [
        {
          "details": "The caller account is not authorized to perform an operation."
        }
      ]
    },
    "events": {
      "Approval(address,address,uint256)": {
        "details": "Emitted when the allowance of a `spender` for an `owner` is set by a call to {approve}. `value` is the new allowance."
      },
      "Transfer(address,address,uint256)": {
        "details": "Emitted when `value` tokens are moved from one account (`from`) to another (`to`). Note that `value` may be zero."
      }
    },
    "kind": "dev",
    "methods": {
      "allowance(address,address)": {
        "details": "See {IERC20-allowance}."
      },
      "approve(address,uint256)": {
        "details": "See {IERC20-approve}. NOTE: If `value` is the maximum `uint256`, the allowance is not updated on `transferFrom`. This is semantically equivalent to an infinite approval. Requirements: - `spender` cannot be the zero address."
      },
      "balanceOf(address)": {
        "details": "See {IERC20-balanceOf}."
      },
      "decimals()": {
        "details": "Returns the number of decimals used to get its user representation. For example, if `decimals` equals `2`, a balance of `505` tokens should be displayed to a user as `5.05` (`505 / 10 ** 2`). Tokens usually opt for a value of 18, imitating the relationship between Ether and Wei. This is the default value returned by this function, unless it's overridden. NOTE: This information is only used for _display_ purposes: it in no way affects any of the arithmetic of the contract, including {IERC20-balanceOf} and {IERC20-transfer}."
      },
      "name()": {
        "details": "Returns the name of the token."
      },
      "owner()": {
        "details": "Returns the address of the current owner."
      },
      "renounceOwnership()": {
        "details": "Leaves the contract without owner. It will not be possible to call `onlyOwner` functions. Can only be called by the current owner. NOTE: Renouncing ownership will leave the contract without an owner, thereby disabling any functionality that is only available to the owner."
      },
      "sellTokens(uint256)": {
        "params": {
          "tokenAmount": ""
        }
      },
      "symbol()": {
        "details": "Returns the symbol of the token, usually a shorter version of the name."
      },
      "totalSupply()": {
        "details": "See {IERC20-totalSupply}."
      },
      "transfer(address,uint256)": {
        "details": "See {IERC20-transfer}. Requirements: - `to` cannot be the zero address. - the caller must have a balance of at least `value`."
      },
      "transferFrom(address,address,uint256)": {
        "details": "See {IERC20-transferFrom}. Skips emitting an {Approval} event indicating an allowance update. This is not required by the ERC. See {xref-ERC20-_approve-address-address-uint256-bool-}[_approve]. NOTE: Does not update the allowance if the current allowance is the maximum `uint256`. Requirements: - `from` and `to` cannot be the zero address. - `from` must have a balance of at least `value`. - the caller must have allowance for ``from``'s tokens of at least `value`."
      },
      "transferOwnership(address)": {
        "details": "Transfers ownership of the contract to a new account (`newOwner`). Can only be called by the current owner."
      }
    },
    "version": 1
  },
  "userdoc": {
    "kind": "user",
    "methods": {
      "sellTokens(uint256)": {
        "notice": "YiDengETH"
      }
    },
    "version": 1
  }
}