{
  "_format": "hh-sol-artifact-1",
  "contractName": "CourseMarket",
  "sourceName": "contracts/CourseMarket.sol",
  "abi": [
    {
      "inputs": [
        {
          "internalType": "address payable",
          "name": "_yiDengToken",
          "type": "address"
        }
      ],
      "stateMutability": "nonpayable",
      "type": "constructor"
    },
    {
      "inputs": [
        {
          "internalType": "address",
          "name": "owner",
          "type": "address"
        }
      ],
      "name": "OwnableInvalidOwner",
      "type": "error"
    },
    {
      "inputs": [
        {
          "internalType": "address",
          "name": "account",
          "type": "address"
        }
      ],
      "name": "OwnableUnauthorizedAccount",
      "type": "error"
    },
    {
      "anonymous": false,
      "inputs": [
        {
          "indexed": true,
          "internalType": "address",
          "name": "buyer",
          "type": "address"
        },
        {
          "indexed": true,
          "internalType": "uint256",
          "name": "courseId",
          "type": "uint256"
        },
        {
          "indexed": false,
          "internalType": "string",
          "name": "web2CourseId",
          "type": "string"
        }
      ],
      "name": "CoursePurchased",
      "type": "event"
    },
    {
      "anonymous": false,
      "inputs": [
        {
          "indexed": true,
          "internalType": "address",
          "name": "previousOwner",
          "type": "address"
        },
        {
          "indexed": true,
          "internalType": "address",
          "name": "newOwner",
          "type": "address"
        }
      ],
      "name": "OwnershipTransferred",
      "type": "event"
    },
    {
      "inputs": [
        {
          "internalType": "string",
          "name": "web2CourseId",
          "type": "string"
        },
        {
          "internalType": "string",
          "name": "name",
          "type": "string"
        },
        {
          "internalType": "uint256",
          "name": "price",
          "type": "uint256"
        }
      ],
      "name": "addCourse",
      "outputs": [],
      "stateMutability": "nonpayable",
      "type": "function"
    },
    {
      "inputs": [],
      "name": "courseCount",
      "outputs": [
        {
          "internalType": "uint256",
          "name": "",
          "type": "uint256"
        }
      ],
      "stateMutability": "view",
      "type": "function"
    },
    {
      "inputs": [
        {
          "internalType": "uint256",
          "name": "",
          "type": "uint256"
        }
      ],
      "name": "courses",
      "outputs": [
        {
          "internalType": "string",
          "name": "web2CourseId",
          "type": "string"
        },
        {
          "internalType": "string",
          "name": "name",
          "type": "string"
        },
        {
          "internalType": "uint256",
          "name": "price",
          "type": "uint256"
        },
        {
          "internalType": "bool",
          "name": "isActive",
          "type": "bool"
        },
        {
          "internalType": "address",
          "name": "creator",
          "type": "address"
        }
      ],
      "stateMutability": "view",
      "type": "function"
    },
    {
      "inputs": [
        {
          "internalType": "address",
          "name": "user",
          "type": "address"
        },
        {
          "internalType": "string",
          "name": "web2CourseId",
          "type": "string"
        }
      ],
      "name": "hasCourse",
      "outputs": [
        {
          "internalType": "bool",
          "name": "",
          "type": "bool"
        }
      ],
      "stateMutability": "view",
      "type": "function"
    },
    {
      "inputs": [],
      "name": "owner",
      "outputs": [
        {
          "internalType": "address",
          "name": "",
          "type": "address"
        }
      ],
      "stateMutability": "view",
      "type": "function"
    },
    {
      "inputs": [
        {
          "internalType": "string",
          "name": "web2CourseId",
          "type": "string"
        }
      ],
      "name": "purchaseCourse",
      "outputs": [],
      "stateMutability": "nonpayable",
      "type": "function"
    },
    {
      "inputs": [],
      "name": "renounceOwnership",
      "outputs": [],
      "stateMutability": "nonpayable",
      "type": "function"
    },
    {
      "inputs": [
        {
          "internalType": "address",
          "name": "newOwner",
          "type": "address"
        }
      ],
      "name": "transferOwnership",
      "outputs": [],
      "stateMutability": "nonpayable",
      "type": "function"
    },
    {
      "inputs": [
        {
          "internalType": "address",
          "name": "",
          "type": "address"
        },
        {
          "internalType": "uint256",
          "name": "",
          "type": "uint256"
        }
      ],
      "name": "userCourses",
      "outputs": [
        {
          "internalType": "bool",
          "name": "",
          "type": "bool"
        }
      ],
      "stateMutability": "view",
      "type": "function"
    },
    {
      "inputs": [
        {
          "internalType": "string",
          "name": "",
          "type": "string"
        }
      ],
      "name": "web2ToCourseId",
      "outputs": [
        {
          "internalType": "uint256",
          "name": "",
          "type": "uint256"
        }
      ],
      "stateMutability": "view",
      "type": "function"
    },
    {
      "inputs": [],
      "name": "yiDengToken",
      "outputs": [
        {
          "internalType": "contract YiDengToken",
          "name": "",
          "type": "address"
        }
      ],
      "stateMutability": "view",
      "type": "function"
    }
  ],
  "bytecode": "0x608060405234801561001057600080fd5b5060405161103c38038061103c83398101604081905261002f916100d4565b338061005557604051631e4fbdf760e01b81526000600482015260240160405180910390fd5b61005e81610084565b50600180546001600160a01b0319166001600160a01b0392909216919091179055610104565b600080546001600160a01b038381166001600160a01b0319831681178455604051919092169283917f8be0079c531659141344cd1fd0a4f28419497f9722a3daafe3b4186f6b6457e09190a35050565b6000602082840312156100e657600080fd5b81516001600160a01b03811681146100fd57600080fd5b9392505050565b610f29806101136000396000f3fe608060405234801561001057600080fd5b50600436106100a95760003560e01c80638da5cb5b116100715780638da5cb5b1461012557806393a05c201461013657806396f979d2146101745780639b84006e14610198578063dd403ce1146101c3578063f2fde38b146101d657600080fd5b80630262232b146100ae57806344a8ef19146100de57806366055159146100f357806367589b6f1461010a578063715018a61461011d575b600080fd5b6001546100c1906001600160a01b031681565b6040516001600160a01b0390911681526020015b60405180910390f35b6100f16100ec366004610b1d565b6101e9565b005b6100fc60055481565b6040519081526020016100d5565b6100f1610118366004610b8a565b610393565b6100f16107c6565b6000546001600160a01b03166100c1565b610164610144366004610be3565b600460209081526000928352604080842090915290825290205460ff1681565b60405190151581526020016100d5565b610187610182366004610c0d565b6107da565b6040516100d5959493929190610c76565b6100fc6101a6366004610b8a565b805160208183018101805160038252928201919093012091525481565b6101646101d1366004610cc2565b610925565b6100f16101e4366004610d10565b6109bf565b6101f16109fd565b60008351116102475760405162461bcd60e51b815260206004820152601e60248201527f5765623220636f757273652049442063616e6e6f7420626520656d707479000060448201526064015b60405180910390fd5b6003836040516102579190610d32565b9081526020016040518091039020546000146102ad5760405162461bcd60e51b8152602060048201526015602482015274436f7572736520616c72656164792065786973747360581b604482015260640161023e565b600580549060006102bd83610d4e565b90915550506040805160a0810182528481526020808201859052818301849052600160608301523360808301526005546000908152600290915291909120815181906103099082610dfe565b506020820151600182019061031e9082610dfe565b5060408281015160028301556060830151600392830180546080909501516001600160a01b031661010002610100600160a81b0319921515929092166001600160a81b03199095169490941717909255600554915161037e908690610d32565b90815260405190819003602001902055505050565b60006003826040516103a59190610d32565b9081526020016040518091039020549050600081116103fe5760405162461bcd60e51b815260206004820152601560248201527410dbdd5c9cd948191bd95cc81b9bdd08195e1a5cdd605a1b604482015260640161023e565b600081815260026020526040808220815160a0810190925280548290829061042590610d75565b80601f016020809104026020016040519081016040528092919081815260200182805461045190610d75565b801561049e5780601f106104735761010080835404028352916020019161049e565b820191906000526020600020905b81548152906001019060200180831161048157829003601f168201915b505050505081526020016001820180546104b790610d75565b80601f01602080910402602001604051908101604052809291908181526020018280546104e390610d75565b80156105305780601f1061050557610100808354040283529160200191610530565b820191906000526020600020905b81548152906001019060200180831161051357829003601f168201915b50505091835250506002820154602082015260039091015460ff81161515604083015261010090046001600160a01b03166060918201528101519091506105ad5760405162461bcd60e51b8152602060048201526011602482015270436f75727365206e6f742061637469766560781b604482015260640161023e565b33600090815260046020908152604080832085845290915290205460ff161561060c5760405162461bcd60e51b8152602060048201526011602482015270105b1c9958591e481c1d5c98da185cd959607a1b604482015260640161023e565b8260405160200161061d9190610d32565b60408051601f19818403018152908290528051602091820120835190926106449201610d32565b604051602081830303815290604052805190602001201461069c5760405162461bcd60e51b8152602060048201526012602482015271086deeae4e6ca40928840dad2e6dac2e8c6d60731b604482015260640161023e565b600154608082015160408084015190516323b872dd60e01b81523360048201526001600160a01b03928316602482015260448101919091529116906323b872dd906064016020604051808303816000875af11580156106ff573d6000803e3d6000fd5b505050506040513d601f19601f820116820180604052508101906107239190610ebe565b6107615760405162461bcd60e51b815260206004820152600f60248201526e151c985b9cd9995c8819985a5b1959608a1b604482015260640161023e565b33600081815260046020908152604080832086845290915290819020805460ff19166001179055518391907f1a04f8d389f43beccf2cc32092c53cb34d57ec70fd68693db2bfe79336db783c906107b9908790610ee0565b60405180910390a3505050565b6107ce6109fd565b6107d86000610a2a565b565b6002602052600090815260409020805481906107f590610d75565b80601f016020809104026020016040519081016040528092919081815260200182805461082190610d75565b801561086e5780601f106108435761010080835404028352916020019161086e565b820191906000526020600020905b81548152906001019060200180831161085157829003601f168201915b50505050509080600101805461088390610d75565b80601f01602080910402602001604051908101604052809291908181526020018280546108af90610d75565b80156108fc5780601f106108d1576101008083540402835291602001916108fc565b820191906000526020600020905b8154815290600101906020018083116108df57829003601f168201915b50505050600283015460039093015491929160ff8116915061010090046001600160a01b031685565b6000806003836040516109389190610d32565b9081526020016040518091039020549050600081116109915760405162461bcd60e51b815260206004820152601560248201527410dbdd5c9cd948191bd95cc81b9bdd08195e1a5cdd605a1b604482015260640161023e565b6001600160a01b0384166000908152600460209081526040808320938352929052205460ff16905092915050565b6109c76109fd565b6001600160a01b0381166109f157604051631e4fbdf760e01b81526000600482015260240161023e565b6109fa81610a2a565b50565b6000546001600160a01b031633146107d85760405163118cdaa760e01b815233600482015260240161023e565b600080546001600160a01b038381166001600160a01b0319831681178455604051919092169283917f8be0079c531659141344cd1fd0a4f28419497f9722a3daafe3b4186f6b6457e09190a35050565b634e487b7160e01b600052604160045260246000fd5b600082601f830112610aa157600080fd5b813567ffffffffffffffff80821115610abc57610abc610a7a565b604051601f8301601f19908116603f01168101908282118183101715610ae457610ae4610a7a565b81604052838152866020858801011115610afd57600080fd5b836020870160208301376000602085830101528094505050505092915050565b600080600060608486031215610b3257600080fd5b833567ffffffffffffffff80821115610b4a57600080fd5b610b5687838801610a90565b94506020860135915080821115610b6c57600080fd5b50610b7986828701610a90565b925050604084013590509250925092565b600060208284031215610b9c57600080fd5b813567ffffffffffffffff811115610bb357600080fd5b610bbf84828501610a90565b949350505050565b80356001600160a01b0381168114610bde57600080fd5b919050565b60008060408385031215610bf657600080fd5b610bff83610bc7565b946020939093013593505050565b600060208284031215610c1f57600080fd5b5035919050565b60005b83811015610c41578181015183820152602001610c29565b50506000910152565b60008151808452610c62816020860160208601610c26565b601f01601f19169290920160200192915050565b60a081526000610c8960a0830188610c4a565b8281036020840152610c9b8188610c4a565b6040840196909652505091151560608301526001600160a01b031660809091015292915050565b60008060408385031215610cd557600080fd5b610cde83610bc7565b9150602083013567ffffffffffffffff811115610cfa57600080fd5b610d0685828601610a90565b9150509250929050565b600060208284031215610d2257600080fd5b610d2b82610bc7565b9392505050565b60008251610d44818460208701610c26565b9190910192915050565b600060018201610d6e57634e487b7160e01b600052601160045260246000fd5b5060010190565b600181811c90821680610d8957607f821691505b602082108103610da957634e487b7160e01b600052602260045260246000fd5b50919050565b601f821115610df957600081815260208120601f850160051c81016020861015610dd65750805b601f850160051c820191505b81811015610df557828155600101610de2565b5050505b505050565b815167ffffffffffffffff811115610e1857610e18610a7a565b610e2c81610e268454610d75565b84610daf565b602080601f831160018114610e615760008415610e495750858301515b600019600386901b1c1916600185901b178555610df5565b600085815260208120601f198616915b82811015610e9057888601518255948401946001909101908401610e71565b5085821015610eae5787850151600019600388901b60f8161c191681555b5050505050600190811b01905550565b600060208284031215610ed057600080fd5b81518015158114610d2b57600080fd5b602081526000610d2b6020830184610c4a56fea264697066735822122012db84c9a5d366e6b65e5696185b2cef0ce4130cf5649f3c8d3da36f0ee9848664736f6c63430008140033",
  "linkReferences": {},
  "deployedLinkReferences": {}
}